{
  "_format": "hh3-artifact-1",
  "contractName": "MoneyPot",
  "sourceName": "contracts/MoneyPot.sol",
  "abi": [
    {
      "inputs": [],
      "stateMutability": "nonpayable",
      "type": "constructor"
    },
    {
      "inputs": [],
      "name": "AttemptCompleted",
      "type": "error"
    },
    {
      "inputs": [],
      "name": "AttemptExpired",
      "type": "error"
    },
    {
      "inputs": [],
      "name": "ExpiredPot",
      "type": "error"
    },
    {
      "inputs": [
        {
          "internalType": "uint256",
          "name": "required",
          "type": "uint256"
        },
        {
          "internalType": "uint256",
          "name": "sent",
          "type": "uint256"
        }
      ],
      "name": "InsufficientEthPayment",
      "type": "error"
    },
    {
      "inputs": [
        {
          "internalType": "uint256",
          "name": "required",
          "type": "uint256"
        },
        {
          "internalType": "uint256",
          "name": "sent",
          "type": "uint256"
        }
      ],
      "name": "InsufficientFee",
      "type": "error"
    },
    {
      "inputs": [],
      "name": "InvalidEthPrice",
      "type": "error"
    },
    {
      "inputs": [
        {
          "internalType": "uint256",
          "name": "minFee",
          "type": "uint256"
        },
        {
          "internalType": "uint256",
          "name": "fee",
          "type": "uint256"
        }
      ],
      "name": "InvalidFee",
      "type": "error"
    },
    {
      "inputs": [],
      "name": "NotExpired",
      "type": "error"
    },
    {
      "inputs": [
        {
          "internalType": "address",
          "name": "owner",
          "type": "address"
        }
      ],
      "name": "OwnableInvalidOwner",
      "type": "error"
    },
    {
      "inputs": [
        {
          "internalType": "address",
          "name": "account",
          "type": "address"
        }
      ],
      "name": "OwnableUnauthorizedAccount",
      "type": "error"
    },
    {
      "inputs": [],
      "name": "PotNotActive",
      "type": "error"
    },
    {
      "inputs": [],
      "name": "PythNotConfigured",
      "type": "error"
    },
    {
      "inputs": [],
      "name": "ReentrancyGuardReentrantCall",
      "type": "error"
    },
    {
      "inputs": [
        {
          "internalType": "address",
          "name": "token",
          "type": "address"
        }
      ],
      "name": "SafeERC20FailedOperation",
      "type": "error"
    },
    {
      "inputs": [],
      "name": "Unauthorized",
      "type": "error"
    },
    {
      "anonymous": false,
      "inputs": [
        {
          "indexed": true,
          "internalType": "address",
          "name": "previousOwner",
          "type": "address"
        },
        {
          "indexed": true,
          "internalType": "address",
          "name": "newOwner",
          "type": "address"
        }
      ],
      "name": "OwnershipTransferred",
      "type": "event"
    },
    {
      "anonymous": false,
      "inputs": [
        {
          "indexed": true,
          "internalType": "uint256",
          "name": "attemptId",
          "type": "uint256"
        },
        {
          "indexed": true,
          "internalType": "uint256",
          "name": "potId",
          "type": "uint256"
        },
        {
          "indexed": true,
          "internalType": "address",
          "name": "hunter",
          "type": "address"
        },
        {
          "indexed": false,
          "internalType": "uint256",
          "name": "timestamp",
          "type": "uint256"
        }
      ],
      "name": "PotAttempted",
      "type": "event"
    },
    {
      "anonymous": false,
      "inputs": [
        {
          "indexed": true,
          "internalType": "uint256",
          "name": "id",
          "type": "uint256"
        },
        {
          "indexed": true,
          "internalType": "address",
          "name": "creator",
          "type": "address"
        },
        {
          "indexed": false,
          "internalType": "uint256",
          "name": "timestamp",
          "type": "uint256"
        }
      ],
      "name": "PotCreated",
      "type": "event"
    },
    {
      "anonymous": false,
      "inputs": [
        {
          "indexed": true,
          "internalType": "uint256",
          "name": "potId",
          "type": "uint256"
        },
        {
          "indexed": true,
          "internalType": "address",
          "name": "creator",
          "type": "address"
        },
        {
          "indexed": false,
          "internalType": "uint256",
          "name": "timestamp",
          "type": "uint256"
        }
      ],
      "name": "PotExpired",
      "type": "event"
    },
    {
      "anonymous": false,
      "inputs": [
        {
          "indexed": true,
          "internalType": "uint256",
          "name": "attemptId",
          "type": "uint256"
        },
        {
          "indexed": true,
          "internalType": "address",
          "name": "hunter",
          "type": "address"
        },
        {
          "indexed": false,
          "internalType": "uint256",
          "name": "timestamp",
          "type": "uint256"
        }
      ],
      "name": "PotFailed",
      "type": "event"
    },
    {
      "anonymous": false,
      "inputs": [
        {
          "indexed": true,
          "internalType": "uint256",
          "name": "potId",
          "type": "uint256"
        },
        {
          "indexed": true,
          "internalType": "address",
          "name": "hunter",
          "type": "address"
        },
        {
          "indexed": false,
          "internalType": "uint256",
          "name": "timestamp",
          "type": "uint256"
        }
      ],
      "name": "PotSolved",
      "type": "event"
    },
    {
      "anonymous": false,
      "inputs": [
        {
          "indexed": true,
          "internalType": "bytes32",
          "name": "priceId",
          "type": "bytes32"
        },
        {
          "indexed": false,
          "internalType": "int64",
          "name": "price",
          "type": "int64"
        },
        {
          "indexed": false,
          "internalType": "uint64",
          "name": "publishTime",
          "type": "uint64"
        }
      ],
      "name": "PriceUpdated",
      "type": "event"
    },
    {
      "inputs": [],
      "name": "CREATOR_ENTRY_FEE_SHARE_PERCENT",
      "outputs": [
        {
          "internalType": "uint256",
          "name": "",
          "type": "uint256"
        }
      ],
      "stateMutability": "view",
      "type": "function"
    },
    {
      "inputs": [],
      "name": "DIFFICULTY_MOD",
      "outputs": [
        {
          "internalType": "uint256",
          "name": "",
          "type": "uint256"
        }
      ],
      "stateMutability": "view",
      "type": "function"
    },
    {
      "inputs": [],
      "name": "HUNTER_SHARE_PERCENT",
      "outputs": [
        {
          "internalType": "uint256",
          "name": "",
          "type": "uint256"
        }
      ],
      "stateMutability": "view",
      "type": "function"
    },
    {
      "inputs": [],
      "name": "MIN_FEE",
      "outputs": [
        {
          "internalType": "uint256",
          "name": "",
          "type": "uint256"
        }
      ],
      "stateMutability": "view",
      "type": "function"
    },
    {
      "inputs": [
        {
          "internalType": "address",
          "name": "owner",
          "type": "address"
        },
        {
          "internalType": "address",
          "name": "spender",
          "type": "address"
        }
      ],
      "name": "allowance",
      "outputs": [
        {
          "internalType": "uint256",
          "name": "",
          "type": "uint256"
        }
      ],
      "stateMutability": "view",
      "type": "function"
    },
    {
      "inputs": [
        {
          "internalType": "address",
          "name": "spender",
          "type": "address"
        },
        {
          "internalType": "uint256",
          "name": "amount",
          "type": "uint256"
        }
      ],
      "name": "approve",
      "outputs": [
        {
          "internalType": "bool",
          "name": "",
          "type": "bool"
        }
      ],
      "stateMutability": "nonpayable",
      "type": "function"
    },
    {
      "inputs": [
        {
          "internalType": "uint256",
          "name": "attemptId",
          "type": "uint256"
        },
        {
          "internalType": "bool",
          "name": "status",
          "type": "bool"
        }
      ],
      "name": "attemptCompleted",
      "outputs": [],
      "stateMutability": "nonpayable",
      "type": "function"
    },
    {
      "inputs": [
        {
          "internalType": "uint256",
          "name": "potId",
          "type": "uint256"
        }
      ],
      "name": "attemptPot",
      "outputs": [
        {
          "internalType": "uint256",
          "name": "",
          "type": "uint256"
        }
      ],
      "stateMutability": "payable",
      "type": "function"
    },
    {
      "inputs": [
        {
          "internalType": "uint256",
          "name": "",
          "type": "uint256"
        }
      ],
      "name": "attempts",
      "outputs": [
        {
          "internalType": "uint256",
          "name": "id",
          "type": "uint256"
        },
        {
          "internalType": "uint256",
          "name": "potId",
          "type": "uint256"
        },
        {
          "internalType": "address",
          "name": "hunter",
          "type": "address"
        },
        {
          "internalType": "uint256",
          "name": "expiresAt",
          "type": "uint256"
        },
        {
          "internalType": "uint256",
          "name": "difficulty",
          "type": "uint256"
        },
        {
          "internalType": "bool",
          "name": "isCompleted",
          "type": "bool"
        }
      ],
      "stateMutability": "view",
      "type": "function"
    },
    {
      "inputs": [
        {
          "internalType": "address",
          "name": "account",
          "type": "address"
        }
      ],
      "name": "balanceOf",
      "outputs": [
        {
          "internalType": "uint256",
          "name": "",
          "type": "uint256"
        }
      ],
      "stateMutability": "view",
      "type": "function"
    },
    {
      "inputs": [
        {
          "internalType": "uint256",
          "name": "amount",
          "type": "uint256"
        },
        {
          "internalType": "uint256",
          "name": "durationSeconds",
          "type": "uint256"
        },
        {
          "internalType": "uint256",
          "name": "fee",
          "type": "uint256"
        },
        {
          "internalType": "address",
          "name": "oneFaAddress",
          "type": "address"
        }
      ],
      "name": "createPot",
      "outputs": [
        {
          "internalType": "uint256",
          "name": "",
          "type": "uint256"
        }
      ],
      "stateMutability": "nonpayable",
      "type": "function"
    },
    {
      "inputs": [],
      "name": "decimals",
      "outputs": [
        {
          "internalType": "uint8",
          "name": "",
          "type": "uint8"
        }
      ],
      "stateMutability": "view",
      "type": "function"
    },
    {
      "inputs": [],
      "name": "emergencyWithdrawEth",
      "outputs": [],
      "stateMutability": "nonpayable",
      "type": "function"
    },
    {
      "inputs": [],
      "name": "ethUsdPriceId",
      "outputs": [
        {
          "internalType": "bytes32",
          "name": "",
          "type": "bytes32"
        }
      ],
      "stateMutability": "view",
      "type": "function"
    },
    {
      "inputs": [
        {
          "internalType": "uint256",
          "name": "potId",
          "type": "uint256"
        }
      ],
      "name": "expirePot",
      "outputs": [],
      "stateMutability": "nonpayable",
      "type": "function"
    },
    {
      "inputs": [],
      "name": "getActivePots",
      "outputs": [
        {
          "internalType": "uint256[]",
          "name": "",
          "type": "uint256[]"
        }
      ],
      "stateMutability": "view",
      "type": "function"
    },
    {
      "inputs": [
        {
          "internalType": "uint256",
          "name": "attemptId",
          "type": "uint256"
        }
      ],
      "name": "getAttempt",
      "outputs": [
        {
          "components": [
            {
              "internalType": "uint256",
              "name": "id",
              "type": "uint256"
            },
            {
              "internalType": "uint256",
              "name": "potId",
              "type": "uint256"
            },
            {
              "internalType": "address",
              "name": "hunter",
              "type": "address"
            },
            {
              "internalType": "uint256",
              "name": "expiresAt",
              "type": "uint256"
            },
            {
              "internalType": "uint256",
              "name": "difficulty",
              "type": "uint256"
            },
            {
              "internalType": "bool",
              "name": "isCompleted",
              "type": "bool"
            }
          ],
          "internalType": "struct MoneyPot.Attempt",
          "name": "",
          "type": "tuple"
        }
      ],
      "stateMutability": "view",
      "type": "function"
    },
    {
      "inputs": [
        {
          "internalType": "address",
          "name": "account",
          "type": "address"
        }
      ],
      "name": "getBalance",
      "outputs": [
        {
          "internalType": "uint256",
          "name": "",
          "type": "uint256"
        }
      ],
      "stateMutability": "view",
      "type": "function"
    },
    {
      "inputs": [],
      "name": "getCurrentPriceInUsd",
      "outputs": [
        {
          "internalType": "int64",
          "name": "",
          "type": "int64"
        },
        {
          "internalType": "int32",
          "name": "",
          "type": "int32"
        }
      ],
      "stateMutability": "view",
      "type": "function"
    },
    {
      "inputs": [
        {
          "internalType": "uint256",
          "name": "potId",
          "type": "uint256"
        }
      ],
      "name": "getPot",
      "outputs": [
        {
          "components": [
            {
              "internalType": "uint256",
              "name": "id",
              "type": "uint256"
            },
            {
              "internalType": "address",
              "name": "creator",
              "type": "address"
            },
            {
              "internalType": "uint256",
              "name": "totalAmount",
              "type": "uint256"
            },
            {
              "internalType": "uint256",
              "name": "fee",
              "type": "uint256"
            },
            {
              "internalType": "uint256",
              "name": "createdAt",
              "type": "uint256"
            },
            {
              "internalType": "uint256",
              "name": "expiresAt",
              "type": "uint256"
            },
            {
              "internalType": "bool",
              "name": "isActive",
              "type": "bool"
            },
            {
              "internalType": "uint256",
              "name": "attemptsCount",
              "type": "uint256"
            },
            {
              "internalType": "address",
              "name": "oneFaAddress",
              "type": "address"
            }
          ],
          "internalType": "struct MoneyPot.MoneyPotData",
          "name": "",
          "type": "tuple"
        }
      ],
      "stateMutability": "view",
      "type": "function"
    },
    {
      "inputs": [],
      "name": "getPots",
      "outputs": [
        {
          "internalType": "uint256[]",
          "name": "",
          "type": "uint256[]"
        }
      ],
      "stateMutability": "view",
      "type": "function"
    },
    {
      "inputs": [
        {
          "internalType": "contract IERC20Metadata",
          "name": "_token",
          "type": "address"
        },
        {
          "internalType": "address",
          "name": "_verifier",
          "type": "address"
        }
      ],
      "name": "initialize",
      "outputs": [],
      "stateMutability": "nonpayable",
      "type": "function"
    },
    {
      "inputs": [
        {
          "internalType": "address",
          "name": "_pythInstance",
          "type": "address"
        },
        {
          "internalType": "bytes32",
          "name": "_priceId",
          "type": "bytes32"
        }
      ],
      "name": "initializePyth",
      "outputs": [],
      "stateMutability": "nonpayable",
      "type": "function"
    },
    {
      "inputs": [
        {
          "internalType": "contract IERC20Metadata",
          "name": "_underlying",
          "type": "address"
        }
      ],
      "name": "initializeToken",
      "outputs": [],
      "stateMutability": "nonpayable",
      "type": "function"
    },
    {
      "inputs": [],
      "name": "name",
      "outputs": [
        {
          "internalType": "string",
          "name": "",
          "type": "string"
        }
      ],
      "stateMutability": "view",
      "type": "function"
    },
    {
      "inputs": [],
      "name": "nextAttemptId",
      "outputs": [
        {
          "internalType": "uint256",
          "name": "",
          "type": "uint256"
        }
      ],
      "stateMutability": "view",
      "type": "function"
    },
    {
      "inputs": [],
      "name": "nextPotId",
      "outputs": [
        {
          "internalType": "uint256",
          "name": "",
          "type": "uint256"
        }
      ],
      "stateMutability": "view",
      "type": "function"
    },
    {
      "inputs": [],
      "name": "owner",
      "outputs": [
        {
          "internalType": "address",
          "name": "",
          "type": "address"
        }
      ],
      "stateMutability": "view",
      "type": "function"
    },
    {
      "inputs": [
        {
          "internalType": "uint256",
          "name": "",
          "type": "uint256"
        }
      ],
      "name": "pots",
      "outputs": [
        {
          "internalType": "uint256",
          "name": "id",
          "type": "uint256"
        },
        {
          "internalType": "address",
          "name": "creator",
          "type": "address"
        },
        {
          "internalType": "uint256",
          "name": "totalAmount",
          "type": "uint256"
        },
        {
          "internalType": "uint256",
          "name": "fee",
          "type": "uint256"
        },
        {
          "internalType": "uint256",
          "name": "createdAt",
          "type": "uint256"
        },
        {
          "internalType": "uint256",
          "name": "expiresAt",
          "type": "uint256"
        },
        {
          "internalType": "bool",
          "name": "isActive",
          "type": "bool"
        },
        {
          "internalType": "uint256",
          "name": "attemptsCount",
          "type": "uint256"
        },
        {
          "internalType": "address",
          "name": "oneFaAddress",
          "type": "address"
        }
      ],
      "stateMutability": "view",
      "type": "function"
    },
    {
      "inputs": [],
      "name": "pythConfigured",
      "outputs": [
        {
          "internalType": "bool",
          "name": "",
          "type": "bool"
        }
      ],
      "stateMutability": "view",
      "type": "function"
    },
    {
      "inputs": [],
      "name": "pythInstance",
      "outputs": [
        {
          "internalType": "contract IPyth",
          "name": "",
          "type": "address"
        }
      ],
      "stateMutability": "view",
      "type": "function"
    },
    {
      "inputs": [],
      "name": "renounceOwnership",
      "outputs": [],
      "stateMutability": "nonpayable",
      "type": "function"
    },
    {
      "inputs": [],
      "name": "symbol",
      "outputs": [
        {
          "internalType": "string",
          "name": "",
          "type": "string"
        }
      ],
      "stateMutability": "view",
      "type": "function"
    },
    {
      "inputs": [],
      "name": "totalSupply",
      "outputs": [
        {
          "internalType": "uint256",
          "name": "",
          "type": "uint256"
        }
      ],
      "stateMutability": "view",
      "type": "function"
    },
    {
      "inputs": [
        {
          "internalType": "address",
          "name": "to",
          "type": "address"
        },
        {
          "internalType": "uint256",
          "name": "amount",
          "type": "uint256"
        }
      ],
      "name": "transfer",
      "outputs": [
        {
          "internalType": "bool",
          "name": "",
          "type": "bool"
        }
      ],
      "stateMutability": "nonpayable",
      "type": "function"
    },
    {
      "inputs": [
        {
          "internalType": "address",
          "name": "from",
          "type": "address"
        },
        {
          "internalType": "address",
          "name": "to",
          "type": "address"
        },
        {
          "internalType": "uint256",
          "name": "amount",
          "type": "uint256"
        }
      ],
      "name": "transferFrom",
      "outputs": [
        {
          "internalType": "bool",
          "name": "",
          "type": "bool"
        }
      ],
      "stateMutability": "nonpayable",
      "type": "function"
    },
    {
      "inputs": [
        {
          "internalType": "address",
          "name": "newOwner",
          "type": "address"
        }
      ],
      "name": "transferOwnership",
      "outputs": [],
      "stateMutability": "nonpayable",
      "type": "function"
    },
    {
      "inputs": [],
      "name": "underlying",
      "outputs": [
        {
          "internalType": "contract IERC20Metadata",
          "name": "",
          "type": "address"
        }
      ],
      "stateMutability": "view",
      "type": "function"
    },
    {
      "inputs": [
        {
          "internalType": "bytes[]",
          "name": "priceUpdateData",
          "type": "bytes[]"
        },
        {
          "internalType": "bytes32",
          "name": "priceId",
          "type": "bytes32"
        }
      ],
      "name": "updateAndGetPrice",
      "outputs": [
        {
          "internalType": "int64",
          "name": "price",
          "type": "int64"
        },
        {
          "internalType": "uint64",
          "name": "publishTime",
          "type": "uint64"
        }
      ],
      "stateMutability": "payable",
      "type": "function"
    },
    {
      "inputs": [
        {
          "internalType": "address",
          "name": "_verifier",
          "type": "address"
        }
      ],
      "name": "updateVerifier",
      "outputs": [],
      "stateMutability": "nonpayable",
      "type": "function"
    },
    {
      "inputs": [],
      "name": "verifier",
      "outputs": [
        {
          "internalType": "address",
          "name": "",
          "type": "address"
        }
      ],
      "stateMutability": "view",
      "type": "function"
    },
    {
      "inputs": [
        {
          "internalType": "uint256",
          "name": "amount",
          "type": "uint256"
        }
      ],
      "name": "withdrawEth",
      "outputs": [],
      "stateMutability": "nonpayable",
      "type": "function"
    }
  ],
  "bytecode": "0x6080604052348015600e575f5ffd5b503380603357604051631e4fbdf760e01b81525f600482015260240160405180910390fd5b603a816043565b50600180556092565b5f80546001600160a01b038381166001600160a01b0319831681178455604051919092169283917f8be0079c531659141344cd1fd0a4f28419497f9722a3daafe3b4186f6b6457e09190a35050565b6127a88061009f5f395ff3fe608060405260043610610249575f3560e01c80636a8896b611610134578063a9059cbb116100b3578063c661b7f411610078578063c661b7f4146107eb578063da2dfd111461081c578063dd62ed3e14610831578063ee10fa3114610850578063f2fde38b14610885578063f8b2cb4f146108a4575f5ffd5b8063a9059cbb146106ad578063bdd10f30146106cc578063c2dd658e146106eb578063c311d0491461070a578063c3c3df4f14610729575f5ffd5b80638da5cb5b116100f95780638da5cb5b1461062b57806395d89b411461064757806397fc007c1461065b5780639c6076e11461067a578063a128bd4c14610699575f5ffd5b80636a8896b6146105b15780636f307dc3146105c557806370a08231146105e4578063715018a61461060357806376c7a3c714610617575f5ffd5b8063313ce567116101cb5780634af6ac67116101905780634af6ac67146105205780635348361d146105355780635b4fa76a146105495780635e8d89e51461056857806360322bb01461057c5780636a18ec491461059c575f5ffd5b8063313ce567146103b357806342b343a3146103d957806347bfec9e14610471578063485cc955146104e25780634af02f6c14610501575f5ffd5b806323b872dd1161021157806323b872dd146102fd57806328d3ad3f1461031c5780632a454c66146103485780632b7ac3f3146103695780632e411f26146103a0575f5ffd5b806306fdde031461024d578063095ea7b31461027757806318160ddd146102a657806322019a1c146102c8578063234a6ed8146102de575b5f5ffd5b348015610258575f5ffd5b506102616108c3565b60405161026e9190612045565b60405180910390f35b348015610282575f5ffd5b5061029661029136600461208e565b610936565b604051901515815260200161026e565b3480156102b1575f5ffd5b506102ba6109b3565b60405190815260200161026e565b3480156102d3575f5ffd5b506102dc610a1e565b005b3480156102e9575f5ffd5b506102dc6102f83660046120b8565b610a73565b348015610308575f5ffd5b506102966103173660046120d3565b610af1565b348015610327575f5ffd5b5061033b610336366004612111565b610b25565b60405161026e9190612128565b348015610353575f5ffd5b5061035c610c06565b60405161026e91906121a7565b348015610374575f5ffd5b50600554610388906001600160a01b031681565b6040516001600160a01b03909116815260200161026e565b6102ba6103ae366004612111565b610d4e565b3480156103be575f5ffd5b506103c7611113565b60405160ff909116815260200161026e565b3480156103e4575f5ffd5b506104346103f3366004612111565b60096020525f9081526040902080546001820154600283015460038401546004850154600590950154939492936001600160a01b0390921692909160ff1686565b6040805196875260208701959095526001600160a01b039093169385019390935260608401526080830191909152151560a082015260c00161026e565b34801561047c575f5ffd5b5061049061048b366004612111565b61117e565b60405161026e919081518152602080830151908201526040808301516001600160a01b031690820152606080830151908201526080808301519082015260a09182015115159181019190915260c00190565b3480156104ed575f5ffd5b506102dc6104fc3660046121e9565b611222565b34801561050c575f5ffd5b506102dc61051b36600461222d565b611256565b34801561052b575f5ffd5b506102ba60065481565b348015610540575f5ffd5b506102ba603281565b348015610554575f5ffd5b506102dc610563366004612111565b61143e565b348015610573575f5ffd5b506102ba600981565b348015610587575f5ffd5b5060045461029690600160a01b900460ff1681565b3480156105a7575f5ffd5b506102ba60035481565b3480156105bc575f5ffd5b5061035c61151e565b3480156105d0575f5ffd5b50600254610388906001600160a01b031681565b3480156105ef575f5ffd5b506102ba6105fe3660046120b8565b611574565b34801561060e575f5ffd5b506102dc6115e1565b348015610622575f5ffd5b506102ba600181565b348015610636575f5ffd5b505f546001600160a01b0316610388565b348015610652575f5ffd5b506102616115f4565b348015610666575f5ffd5b506102dc6106753660046120b8565b61163b565b348015610685575f5ffd5b506102ba610694366004612250565b6116ae565b3480156106a4575f5ffd5b506102ba605a81565b3480156106b8575f5ffd5b506102966106c736600461208e565b611883565b3480156106d7575f5ffd5b506102dc6106e636600461208e565b6118b0565b3480156106f6575f5ffd5b50600454610388906001600160a01b031681565b348015610715575f5ffd5b506102dc610724366004612111565b6118fb565b348015610734575f5ffd5b5061079d610743366004612111565b600860208190525f918252604090912080546001820154600283015460038401546004850154600586015460068701546007880154979098015495976001600160a01b0395861697949693959294919360ff909116921689565b60408051998a526001600160a01b0398891660208b01528901969096526060880194909452608087019290925260a0860152151560c085015260e0840152166101008201526101200161026e565b3480156107f6575f5ffd5b506107ff611963565b6040805160079390930b835260039190910b60208301520161026e565b348015610827575f5ffd5b506102ba60075481565b34801561083c575f5ffd5b506102ba61084b3660046121e9565b611a11565b61086361085e36600461228e565b611a85565b6040805160079390930b83526001600160401b0390911660208301520161026e565b348015610890575f5ffd5b506102dc61089f3660046120b8565b611cc4565b3480156108af575f5ffd5b506102ba6108be3660046120b8565b611cfe565b600254604080516306fdde0360e01b815290516060926001600160a01b0316916306fdde03916004808301925f9291908290030181865afa15801561090a573d5f5f3e3d5ffd5b505050506040513d5f823e601f3d908101601f19168201604052610931919081019061236d565b905090565b60025460405163095ea7b360e01b81526001600160a01b038481166004830152602482018490525f92169063095ea7b3906044016020604051808303815f875af1158015610986573d5f5f3e3d5ffd5b505050506040513d601f19601f820116820180604052508101906109aa91906123ff565b90505b92915050565b600254604080516318160ddd60e01b815290515f926001600160a01b0316916318160ddd9160048083019260209291908290030181865afa1580156109fa573d5f5f3e3d5ffd5b505050506040513d601f19601f82011682018060405250810190610931919061241a565b610a26611d2c565b478015610a70575f546001600160a01b03165b6001600160a01b03166108fc8290811502906040515f60405180830381858888f19350505050158015610a6e573d5f5f3e3d5ffd5b505b50565b610a7b611d2c565b6002546001600160a01b031615610acf5760405162461bcd60e51b8152602060048201526013602482015272105b1c9958591e481a5b9a5d1a585b1a5e9959606a1b60448201526064015b60405180910390fd5b600280546001600160a01b0319166001600160a01b0392909216919091179055565b5f610afa611d58565b600254610b12906001600160a01b0316858585611d82565b506001610b1e60018055565b9392505050565b610b7f6040518061012001604052805f81526020015f6001600160a01b031681526020015f81526020015f81526020015f81526020015f81526020015f151581526020015f81526020015f6001600160a01b031681525090565b505f908152600860208181526040928390208351610120810185528154815260018201546001600160a01b03908116938201939093526002820154948101949094526003810154606085015260048101546080850152600581015460a0850152600681015460ff16151560c0850152600781015460e0850152909101541661010082015290565b60605f805b600a54811015610c675760085f600a8381548110610c2b57610c2b612431565b5f918252602080832090910154835282019290925260400190206006015460ff1615610c5f5781610c5b81612459565b9250505b600101610c0b565b505f816001600160401b03811115610c8157610c81612301565b604051908082528060200260200182016040528015610caa578160200160208202803683370190505b5090505f805b600a54811015610d455760085f600a8381548110610cd057610cd0612431565b5f918252602080832090910154835282019290925260400190206006015460ff1615610d3d57600a8181548110610d0957610d09612431565b905f5260205f200154838380610d1e90612459565b945081518110610d3057610d30612431565b6020026020010181815250505b600101610cb0565b50909392505050565b5f610d57611d58565b5f828152600860205260409020600681015460ff16610d8957604051633c8555d960e11b815260040160405180910390fd5b80600501544210610dad5760405163141d1aef60e11b815260040160405180910390fd5b60038101545f6064610dc0603284612471565b610dca919061249c565b90505f610dd782846124af565b90503415610f9357600454600160a01b900460ff16610e09576040516344cbad8560e01b815260040160405180910390fd5b5f306001600160a01b031663313ce5676040518163ffffffff1660e01b8152600401602060405180830381865afa158015610e46573d5f5f3e3d5ffd5b505050506040513d601f19601f82011682018060405250810190610e6a91906124c2565b610e759060126124e2565b610e8090600a6125d6565b610e8a9085612471565b90505f610e9682611def565b905080341015610ec2576040516310b78b1560e01b815260048101829052346024820152604401610ac6565b80341115610eff57336108fc610ed883346124af565b6040518115909202915f818181858888f19350505050158015610efd573d5f5f3e3d5ffd5b505b5f6064610f0d603284612471565b610f17919061249c565b90505f610f2482846124af565b60018901546040519192506001600160a01b03169083156108fc029084905f818181858888f19350505050158015610f5e573d5f5f3e3d5ffd5b50604051309082156108fc029083905f818181858888f19350505050158015610f89573d5f5f3e3d5ffd5b5050505050610fcc565b6001840154600254610fb4916001600160a01b039182169133911685611d82565b600254610fcc906001600160a01b0316333084611d82565b5f60098560070154610fde91906125e4565b610fe99060036125f7565b6007860180549192505f610ffc83612459565b9091555050600780545f918261101183612459565b9190505590506040518060c00160405280828152602001898152602001336001600160a01b031681526020014261012c61104b91906125f7565b815260208082018590525f60409283018190528481526009825282902083518155838201516001820155838301516002820180546001600160a01b0319166001600160a01b03909216919091179055606084015160038201556080840151600482015560a0909301516005909301805460ff1916931515939093179092555142815233918a9184917fb90c27c76196956b18f7c45a7c71853ab24e4da908f02d74d0aeed97a8d369ab910160405180910390a49550505050505061110e60018055565b919050565b6002546040805163313ce56760e01b815290515f926001600160a01b03169163313ce5679160048083019260209291908290030181865afa15801561115a573d5f5f3e3d5ffd5b505050506040513d601f19601f8201168201806040525081019061093191906124c2565b6111bc6040518060c001604052805f81526020015f81526020015f6001600160a01b031681526020015f81526020015f81526020015f151581525090565b505f90815260096020908152604091829020825160c0810184528154815260018201549281019290925260028101546001600160a01b031692820192909252600382015460608201526004820154608082015260059091015460ff16151560a082015290565b61122a611d2c565b61123382610a73565b600580546001600160a01b0319166001600160a01b039290921691909117905550565b61125e611d58565b6005546001600160a01b03163314611288576040516282b42960e81b815260040160405180910390fd5b5f828152600960209081526040808320600181015484526008909252909120600681015460ff166112cc57604051633c8555d960e11b815260040160405180910390fd5b806005015442106112f05760405163141d1aef60e11b815260040160405180910390fd5b8160030154421061131457604051630350d87360e01b815260040160405180910390fd5b600582015460ff161561133a576040516303216c4560e61b815260040160405180910390fd5b60058201805460ff1916600117905582156113ec5760068101805460ff1916905560028101545f9060649061137190605a90612471565b61137b919061249c565b600280850154905491925061139d916001600160a01b03908116911683611f54565b600283015460018401546040514281526001600160a01b03909216917ff1287295bd091db1377c2cb22ff6fbdadb12d5d0b29617d536c87cc1c36a16fe9060200160405180910390a350611433565b60028201546040514281526001600160a01b039091169085907f37ca40d98896f541f571cbd03cce23dc1f58d70e76716c231ce0513ae429624e9060200160405180910390a35b5050610a6e60018055565b611446611d58565b5f818152600860205260409020600681015460ff1661147857604051633c8555d960e11b815260040160405180910390fd5b806005015442101561149d5760405163d0404f8560e01b815260040160405180910390fd5b60068101805460ff19169055600181015460028083015490546114ce926001600160a01b0391821692911690611f54565b60018101546040514281526001600160a01b039091169083907fe9329c07e095ee411f7af93fd90be38fd4cfe35687d55bfc1801a8579267146f9060200160405180910390a350610a7060018055565b6060600a80548060200260200160405190810160405280929190818152602001828054801561156a57602002820191905f5260205f20905b815481526020019060010190808311611556575b5050505050905090565b6002546040516370a0823160e01b81526001600160a01b0383811660048301525f9216906370a08231906024015b602060405180830381865afa1580156115bd573d5f5f3e3d5ffd5b505050506040513d601f19601f820116820180604052508101906109ad919061241a565b6115e9611d2c565b6115f25f611f8a565b565b600254604080516395d89b4160e01b815290516060926001600160a01b0316916395d89b41916004808301925f9291908290030181865afa15801561090a573d5f5f3e3d5ffd5b611643611d2c565b6001600160a01b03811661168c5760405162461bcd60e51b815260206004820152601060248201526f24b73b30b634b2103b32b934b334b2b960811b6044820152606401610ac6565b600580546001600160a01b0319166001600160a01b0392909216919091179055565b5f6116b7611d58565b848311806116c55750600183105b156116ed57604051631e0bd6c160e31b81526001600482015260248101849052604401610ac6565b600680545f91826116fd83612459565b919050559050604051806101200160405280828152602001336001600160a01b03168152602001878152602001858152602001428152602001864261174291906125f7565b8152600160208083018290525f60408085018290526001600160a01b03808a166060968701528783526008808552828420885181559488015185870180549184166001600160a01b0319928316179055928801516002808701919091559688015160038601556080880151600486015560a0880151600586015560c088015160068601805491151560ff1990921691909117905560e08801516007860155610100909701519390960180549387169390911692909217909155600a8054928301815590527fc65a7bb8d6351c1cf70c95a316cc6a92839c986682d98bc35f958f4883f9d2a801839055546118399116333089611d82565b604051428152339082907f105e89af34e210616abcb0ffda64ce2a3408643b8d2f2db8f72f004c01cd38d29060200160405180910390a3905061187b60018055565b949350505050565b5f61188c611d58565b6002546118a4906001600160a01b0316338585611d82565b5060016109ad60018055565b6001600160a01b038216156118ea576004805460038390556001600160a81b0319166001600160a01b03841617600160a01b179055610a6e565b6004805460ff60a01b191690555050565b611903611d2c565b804710156119535760405162461bcd60e51b815260206004820152601860248201527f496e73756666696369656e74204554482062616c616e636500000000000000006044820152606401610ac6565b5f546001600160a01b0316610a39565b6004545f908190600160a01b900460ff16611991576040516344cbad8560e01b815260040160405180910390fd5b600480546003546040516396834ad360e01b8152928301525f916001600160a01b03909116906396834ad390602401608060405180830381865afa1580156119db573d5f5f3e3d5ffd5b505050506040513d601f19601f820116820180604052508101906119ff919061260a565b80516040909101519094909350915050565b600254604051636eb1769f60e11b81526001600160a01b03848116600483015283811660248301525f92169063dd62ed3e90604401602060405180830381865afa158015611a61573d5f5f3e3d5ffd5b505050506040513d601f19601f820116820180604052508101906109aa919061241a565b6004545f908190600160a01b900460ff16611ab3576040516344cbad8560e01b815260040160405180910390fd5b6004805460405163d47eed4560e01b81525f926001600160a01b039092169163d47eed4591611ae6918a918a91016126a8565b602060405180830381865afa158015611b01573d5f5f3e3d5ffd5b505050506040513d601f19601f82011682018060405250810190611b25919061241a565b905080341015611b515760405163a458261b60e01b815260048101829052346024820152604401610ac6565b60048054604051631df3cbc560e31b81526001600160a01b039091169163ef9e5e28918491611b84918b918b91016126a8565b5f604051808303818588803b158015611b9b575f5ffd5b505af1158015611bad573d5f5f3e3d5ffd5b5050600480546040516396834ad360e01b81529182018990525f94506001600160a01b031692506396834ad39150602401608060405180830381865afa158015611bf9573d5f5f3e3d5ffd5b505050506040513d601f19601f82011682018060405250810190611c1d919061260a565b805160608201516040805160079390930b83526001600160401b03909116602083015291925086917f4407ea639dccc6951feab9ab176063f7cd6a4379b97b58b421844522121d6472910160405180910390a281341115611cad57336108fc611c8684346124af565b6040518115909202915f818181858888f19350505050158015611cab573d5f5f3e3d5ffd5b505b80516060909101519093509150505b935093915050565b611ccc611d2c565b6001600160a01b038116611cf557604051631e4fbdf760e01b81525f6004820152602401610ac6565b610a7081611f8a565b6040516370a0823160e01b81526001600160a01b03821660048201525f9030906370a08231906024016115a2565b5f546001600160a01b031633146115f25760405163118cdaa760e01b8152336004820152602401610ac6565b600260015403611d7b57604051633ee5aeb560e01b815260040160405180910390fd5b6002600155565b6040516001600160a01b038481166024830152838116604483015260648201839052611de99186918216906323b872dd906084015b604051602081830303815290604052915060e01b6020820180516001600160e01b038381831617835250505050611fd9565b50505050565b6004545f90600160a01b900460ff16611e1b576040516344cbad8560e01b815260040160405180910390fd5b600480546003546040516396834ad360e01b8152928301525f916001600160a01b03909116906396834ad390602401608060405180830381865afa158015611e65573d5f5f3e3d5ffd5b505050506040513d601f19601f82011682018060405250810190611e89919061260a565b90505f815f015160070b13611eb1576040516359e3bc8d60e01b815260040160405180910390fd5b5f8390505f5f836040015160030b1215611f00578260400151611ed390612746565b611ee49063ffffffff16600a612767565b8351611ef991906001600160401b031661249c565b9050611f2e565b6040830151611f169063ffffffff16600a612767565b8351611f2b91906001600160401b0316612471565b90505b80611f4183670de0b6b3a7640000612471565b611f4b919061249c565b95945050505050565b6040516001600160a01b03838116602483015260448201839052611f8591859182169063a9059cbb90606401611db7565b505050565b5f80546001600160a01b038381166001600160a01b0319831681178455604051919092169283917f8be0079c531659141344cd1fd0a4f28419497f9722a3daafe3b4186f6b6457e09190a35050565b5f5f60205f8451602086015f885af180611ff8576040513d5f823e3d81fd5b50505f513d9150811561200f57806001141561201c565b6001600160a01b0384163b155b15611de957604051635274afe760e01b81526001600160a01b0385166004820152602401610ac6565b602081525f82518060208401528060208501604085015e5f604082850101526040601f19601f83011684010191505092915050565b6001600160a01b0381168114610a70575f5ffd5b5f5f6040838503121561209f575f5ffd5b82356120aa8161207a565b946020939093013593505050565b5f602082840312156120c8575f5ffd5b8135610b1e8161207a565b5f5f5f606084860312156120e5575f5ffd5b83356120f08161207a565b925060208401356121008161207a565b929592945050506040919091013590565b5f60208284031215612121575f5ffd5b5035919050565b5f610120820190508251825260018060a01b03602084015116602083015260408301516040830152606083015160608301526080830151608083015260a083015160a083015260c0830151151560c083015260e083015160e08301526101008301516121a06101008401826001600160a01b03169052565b5092915050565b602080825282518282018190525f918401906040840190835b818110156121de5783518352602093840193909201916001016121c0565b509095945050505050565b5f5f604083850312156121fa575f5ffd5b82356122058161207a565b915060208301356122158161207a565b809150509250929050565b8015158114610a70575f5ffd5b5f5f6040838503121561223e575f5ffd5b82359150602083013561221581612220565b5f5f5f5f60808587031215612263575f5ffd5b84359350602085013592506040850135915060608501356122838161207a565b939692955090935050565b5f5f5f604084860312156122a0575f5ffd5b83356001600160401b038111156122b5575f5ffd5b8401601f810186136122c5575f5ffd5b80356001600160401b038111156122da575f5ffd5b8660208260051b84010111156122ee575f5ffd5b6020918201979096509401359392505050565b634e487b7160e01b5f52604160045260245ffd5b604051608081016001600160401b038111828210171561233757612337612301565b60405290565b604051601f8201601f191681016001600160401b038111828210171561236557612365612301565b604052919050565b5f6020828403121561237d575f5ffd5b81516001600160401b03811115612392575f5ffd5b8201601f810184136123a2575f5ffd5b80516001600160401b038111156123bb576123bb612301565b6123ce601f8201601f191660200161233d565b8181528560208385010111156123e2575f5ffd5b8160208401602083015e5f91810160200191909152949350505050565b5f6020828403121561240f575f5ffd5b8151610b1e81612220565b5f6020828403121561242a575f5ffd5b5051919050565b634e487b7160e01b5f52603260045260245ffd5b634e487b7160e01b5f52601160045260245ffd5b5f6001820161246a5761246a612445565b5060010190565b80820281158282048414176109ad576109ad612445565b634e487b7160e01b5f52601260045260245ffd5b5f826124aa576124aa612488565b500490565b818103818111156109ad576109ad612445565b5f602082840312156124d2575f5ffd5b815160ff81168114610b1e575f5ffd5b60ff82811682821603908111156109ad576109ad612445565b6001815b6001841115611cbc5780850481111561251a5761251a612445565b600184161561252857908102905b60019390931c9280026124ff565b5f82612544575060016109ad565b8161255057505f6109ad565b816001811461256657600281146125705761258c565b60019150506109ad565b60ff84111561258157612581612445565b50506001821b6109ad565b5060208310610133831016604e8410600b84101617156125af575081810a6109ad565b6125bb5f1984846124fb565b805f19048211156125ce576125ce612445565b029392505050565b5f6109aa60ff841683612536565b5f826125f2576125f2612488565b500690565b808201808211156109ad576109ad612445565b5f608082840312801561261b575f5ffd5b50612624612315565b82518060070b8114612634575f5ffd5b815260208301516001600160401b038116811461264f575f5ffd5b60208201526040830151600381900b8114612668575f5ffd5b60408201526060928301519281019290925250919050565b81835281816020850137505f828201602090810191909152601f909101601f19169091010190565b602080825281018290525f6040600584901b830181019083018583601e1936839003015b8782101561273957868503603f1901845282358181126126ea575f5ffd5b89016020810190356001600160401b03811115612705575f5ffd5b803603821315612713575f5ffd5b61271e878284612680565b965050506020830192506020840193506001820191506126cc565b5092979650505050505050565b5f8160030b637fffffff19810361275f5761275f612445565b5f0392915050565b5f6109aa838361253656fea26469706673582212200e52a63aa6e01ae254104621052d3fab8a871c9d27de1ce3c230418e7442845564736f6c634300081c0033",
  "linkReferences": {},
  "deployedLinkReferences": {},
  "immutableReferences": {},
  "inputSourceName": "project/contracts/MoneyPot.sol",
  "buildInfoId": "solc-0_8_28-44f2a0cae8e546ed8c46d0c9585bafb7137b833c"
}